:060000000A128A110F2F05
:100DE600F000F52E831203130C1EFA2EFB2EF52EA1
:100DF600FC2E7008990008007F340D34B7349F34F8
:100E0600CD34DB34FB340F34FF34DF34EF34F934C4
:100E16007334BD34F334E33483134230FD000630BB
:100E2600FE00FF30FF00323084000A128A112527A7
:100E36000A128A1183010A128A11792F7E088A0002
:100E46007F0882000A128A1121270A128A1180005D
:100E5600840A04087D0603190034FF0A0319FE0AF2
:100E6600252FF500AA30F1007108F2007508F1008F
:100E76007108F3007508AA3EF1007108F400F60146
:100E860007307602031C482F492F4B2F5B2F5B2F11
:100E960000300A128A11F3260A128A110130F10073
:100EA6007108F60707307602031C5A2F5B2F4B2F6B
:100EB600F60103307602031C612F622F642F782F10
:100EC600782F7608723E840000080A128A11F326EB
:100ED6000A128A110130F1007108F6070330760212
:100EE600031C762F772F642F782F0800203084007C
:100EF6003230F7000408F8001030F9007708840053
:100F060083130008FA00F70A780884007A0880003C
:100F1600F80AF90B812F0630831603139F003F3022
:100F2600850086011811FF309900181398161812BB
:100F3600831203139817B101B0013108203E8400D3
:100F460000088600A62F831203138518AB2FAC2F3B
:100F5600C62F31080F3A031DB12FB22FB42FB1019E
:100F6600B92F0130F7007708B107B92F3108203EB5
:100F76008400831300088600C02F851CC32FC42F4E
:100F8600C02FF52FF52F0519C92FCA2FE42FB10849
:100F9600031DCE2FCF2FD42F0F30F7007708B100C7
:100FA600D72F0130B102D72F3108203E840083139A
:100FB60000088600DE2F051DE12FE22FDE2FF52F1C
:100FC600F52F8519E72FE82FF52F3108F700770859
:100FD600B000ED2F851DF02FF12FED2FF52FF52FFA
:100FE600F52FF52F30080A128A1134270A128A11B2
:0A0FF600A62FA62F0A128A11002868
:02400E00323F3F
:00000001FF
