:060000000A128A11EF2F25
:100EC600831203138C1E632F1A08F0007008F100BA
:100ED600710808007F340D34B7349F34CD34DB34C9
:100EE600FB340F34FF34DF34EF34F9347334BD345C
:100EF600F334E3347E088A007F0882007D270A12D5
:100F06008A118000840A04087D0603190034FF0A4A
:100F16000319FE0A812F0A128A1163270A128A11FF
:100F2600AA3A031D8E2F0A128A1163270A128A1102
:100F3600F2007208F4000A128A1163270A128A1153
:100F4600F2007208F3007408AA3E7306031D8E2F82
:100F560074080800203084003230F5000408F600DA
:100F66001030F7007508840083130008F800F50AAE
:100F76007608840078088000F60AF70BB52F8316EA
:100F8600031386011811FF30990083120313981773
:100F960018131816B1013108203E84000008860097
:100FA60018169818E12F0A128A118E270A128A112A
:100FB600F500750883120313B000E22F18121030E3
:100FC60030020318EA2F3008F5007508B100310821
:100FD600203E84008313D12FF90183134230FD0094
:100FE6000730FE006D30FF00323084000A128A118D
:0A0FF600812783010A128A11AD2F32
:02400E0032FF7F
:00000001FF
