:060000000A128A11722FA2
:100E8400432F831203138C1E482F492F432F4A2FBD
:100E94001A08F0007008F1007108502F08007F3420
:100EA4000D34B7349F34CD34DB34FB340F34FF348A
:100EB400DF34EF34F9347334BD34F334E3347E086F
:100EC4008A007F08820061270A128A118000840A3E
:100ED40004087D0603190034FF0A0319FE0A652F6E
:100EE400F90183134230FD000730FE005130FF004A
:100EF400323084000A128A1165270A128A1183018A
:100F04000A128A11AD2F872F872F0A128A114227BE
:100F14000A128A11AA3A031D902F912F872F922F1C
:100F24000A128A1142270A128A11F2007208F40086
:100F34000A128A1142270A128A11F2007208F30077
:100F44007408AA3E7306031DA82FA92F852FAA2F64
:100F54007408AC2F0800203084003230F5000408F7
:100F6400F6001030F7007508840083130008F800B9
:100F7400F50A7608840078088000F60AF70BB52F86
:100F84008316031386011811FF309900831203138B
:100F94009817181318160310003003180130B10005
:100FA4003108203E840000088600D82F18169818AF
:100FB400DC2FDD2FE82F0A128A1185270A128A11E5
:100FC400F500750883120313B000EA2F1812EA2FF4
:100FD400103030020318EF2FF02FF52F3008F500F2
:100FE4007508B100F52F3108203E840083130008F2
:0C0FF4008600D82FD82F0A128A1100287E
:02400E00323F3F
:00000001FF
