:060000000A128A11762F9E
:100E8800452F831203138C1E4A2F4B2F452F4C2FAF
:100E98001A08F0007008F1007108522F08007F341A
:100EA8000D34B7349F34CD34DB34FB340F34FF3486
:100EB800DF34EF34F9347334BD34F334E3347E086B
:100EC8008A007F0882000A128A1163270A128A118F
:100ED8008000840A04087D0603190034FF0A0319F8
:100EE800FE0A672FF90183134230FD000730FE0028
:100EF8005330FF00323084000A128A1167270A1221
:100F08008A1183010A128A11B12F8B2F8B2F0A1293
:100F18008A1144270A128A11AA3A031D942F952F81
:100F28008B2F962F0A128A1144270A128A11F2006F
:100F38007208F4000A128A1144270A128A11F20070
:100F48007208F3007408AA3E7306031DAC2FAD2F78
:100F5800892FAE2F7408B02F08002030840032305B
:100F6800F5000408F6001030F700750884008313B4
:100F78000008F800F50A7608840078088000F60A68
:100F8800F70BB92F8316031386011811FF30990048
:100F980083120313981718131816B1013108203E4D
:100FA800840000088600D82F18169818DC2FDD2F2B
:100FB800E82F0A128A1189270A128A11F500750882
:100FC80083120313B000EA2F1812EA2F10303002F0
:100FD8000318EF2FF02FF52F3008F5007508B10032
:100FE800F52F3108203E8400831300088600D82F8F
:080FF800D82F0A128A1100280B
:02400E00323F3F
:00000001FF
