:060000000A128A110D2F07
:100DC000F000E22E831203130C1EE72EE82EE22E13
:100DD000E92E7008990008007F340D34B7349F3431
:100DE000CD34DB34FB340F34FF34DF34EF34F934EB
:100DF0007334BD34F334E3347E088A007F08820004
:100E0000FC260A128A118000840A04087D06031950
:100E10000034FF0A0319FE0A002F83134230FD003D
:100E20000630FE00EC30FF00323084000A128A11D6
:100E300000270A128A1183010A128A116D2FF50008
:100E4000AA30F1007108F2007508F1007108F30092
:100E50007508AA3EF1007108F40003100030031871
:100E60000130F60007307602031C372F382F3A2F57
:100E70004B2F4B2F00300A128A11E0260A128A11DA
:100E80000130F1007108F60707307602031C492F84
:100E90004A2F3A2F4B2F0310003003180130F60071
:100EA00003307602031C552F562F582F6C2F6C2FB2
:100EB0007608723E840000080A128A11E0260A129F
:100EC0008A110130F1007108F60703307602031C25
:100ED0006A2F6B2F582F6C2F08002030840032307F
:100EE000F7000408F8001030F90077088400831335
:100EF0000008FA00F70A780884007A088000F80AE7
:100F0000F90B752F0630831603139F003F308500C1
:100F100086011811FF3099001813981618128312C1
:100F2000031398170310003003180130B1000310A9
:100F3000003003180130B0003108203E8400000862
:100F40008600A22F831203138518A72FA82FC62F60
:100F500031080F3A031DAD2FAE2FB42F0310003010
:100F600003180130B100B92F0130F7007708B1073D
:100F7000B92F3108203E8400831300088600C02F5B
:100F8000851CC32FC42FC02FF52FF52F0519C92F8E
:100F9000CA2FE42FB108031DCE2FCF2FD42F0F302F
:100FA000F7007708B100D72F0130B102D72F3108F1
:100FB000203E8400831300088600DE2F051DE12FEC
:100FC000E22FDE2FF52FF52F8519E72FE82FF52FCC
:100FD0003108F7007708B000ED2F851DF02FF12FB5
:100FE000ED2FF52FF52FF52FF52F30080A128A1166
:100FF0001F270A128A11A22FA22F0A128A11002873
:02400E00323F3F
:00000001FF
