:060000000A128A11F02F24
:100E5800F000831203130C1E2D2F70089900080050
:100E68007F340D34B7349F34CD34DB34FB340F3446
:100E7800FF34DF34EF34F9347334BD34F334E334FE
:100E88007E088A007F08820044270A128A1180009F
:100E9800840A04087D0603190034FF0A0319FE0AB0
:100EA800482FF500AA30F1007108F2007508F1002A
:100EB8007108F3007508AA3EF1007108F400F60104
:100EC800073076020318762F00300A128A112C2771
:100ED8000A128A110130F1007108F607073076020C
:100EE800031C682FF6010330760203180800760801
:100EF800723E840000080A128A112C270A128A11ED
:100F08000130F1007108F607772F20308400323065
:100F1800F7000408F8001030F900770884008313FC
:100F28000008FA00F70A780884007A088000F80AAE
:100F3800F90B912F0630831603139F003F3085006D
:100F480086011811FF309900181398161812831289
:100F580003139817B101B0013108203E840000083E
:100F68008600831203138518CC2F31080F3A031D0E
:100F7800BF2FB101C32F0130F7007708B10731083F
:100F8800203E84008313000886008518E92FC92FA6
:100F98000519E12FB108031DD62F0F30F700770888
:100FA800B100D82F0130B1023108203E84008313EC
:100FB800000886000519E92FDE2F8519E92F310869
:100FC800F7007708B000851DE72F30080A128A114C
:100FD80055270A128A11B52F83134230FD000730B6
:100FE800FE003430FF00323084000A128A1148278C
:080FF80083010A128A11892FFE
:02400E0032FF7F
:00000001FF
