:060000000A128A11822F92
:100EAE00831203138C1E5C2F5D2F572F1A08F00030
:100EBE00700808007F340D34B7349F34CD34DB34E2
:100ECE00FB340F34FF34DF34EF34F9347334BD3474
:100EDE00F334E3347E088A007F08820071270A12F9
:100EEE008A118000840A04087D0603190034FF0A63
:100EFE000319FE0A752FF70183134230FD000730E8
:100F0E00FE006130FF00323084000A128A1175270C
:100F1E000A128A1183010A128A11B42F0A128A1137
:100F2E0057270A128A11AA3A031D9E2F9F2F952F1B
:100F3E000A128A1157270A128A11F2000A128A110E
:100F4E0057270A128A11F1007208AA3E7106031D74
:100F5E00B12FB22F952F7208080020308400323046
:100F6E00F3000408F4001030F500730884008313B6
:100F7E000008F600F30A7408840076088000F40A6C
:100F8E00F50BBC2F0310003003180130831603132A
:100F9E0086001811FF309900831203139817181347
:100FAE0018160310003003180130B1002008860017
:100FBE0018169818E32FE42FED2F0A128A11952791
:100FCE000A128A1183120313B000EE2F181210307A
:100FDE0030020318F32FF42FF62F3008B10031082A
:100FEE00203E8400831300088600DF2F0A128A1128
:020FFE000028C9
:02400E00323F3F
:00000001FF
