:060000000A128A112A2FEA
:100DFE00F000831203130C1E052F062F002F700810
:100E0E00990008007F340D34B7349F34CD34DB3471
:100E1E00FB340F34FF34DF34EF34F9347334BD3424
:100E2E00F334E3347E088A007F08820019270A1201
:100E3E008A118000840A04087D0603190034FF0A13
:100E4E000319FE0A1D2F83134730FD000730FE00E5
:100E5E000930FF00373084000A128A111D270A124A
:100E6E008A1183010A128A117D2F83120313A300A4
:100E7E00AA30A0002308F1007108A1002308AA3EA1
:100E8E00F1007108A2000310003003180130A40015
:100E9E0000300A128A11FF260A128A110130F1005F
:100EAE00710883120313A40707302402031C602F5A
:100EBE00612F4F2F0310003003180130A4002408B7
:100ECE00203E8400831300080A128A11FF260A129C
:100EDE008A110130F100710883120313A407033045
:100EEE002402031C7B2F7C2F662F080025308400E4
:100EFE003730F2000408F3001030F400720884005A
:100F0E0083130008F500F20A730884007508800048
:100F1E00F30AF40B852F0630831603139F003F3020
:100F2E008500031000300318013086001811FF30C1
:100F3E00990018139816181283120313981703109A
:100F4E00003003180130B6000310003003180130D2
:100F5E00B50025088600831203138518B72FB82F06
:100F6E00D32F36080F3A031DBD2FBE2FC42F0310EB
:100F7E00003003180130B600C82F0130F20072089D
:100F8E00B6073608253E8400831300088600851CAC
:100F9E00D12FD22FCE2FF62F0519D62FD72FEC2FDC
:100FAE00B608031DDB2FDC2FDF2F0F30B600E12F2D
:100FBE000130B6023608253E8400831300088600F1
:100FCE00051DEA2FEB2FE72FF62F8519EF2FF02FA8
:100FDE00F62F3608B500851DF52FF62FF22F3508A2
:100FEE000A128A113C270A128A11B22F0A128A118A
:020FFE000028C9
:02400E00323F3F
:00000001FF
